{
  "contractName": "Rocket",
  "abi": [
    {
      "constant": true,
      "inputs": [],
      "name": "penalty",
      "outputs": [
        {
          "name": "",
          "type": "uint256"
        }
      ],
      "payable": false,
      "stateMutability": "view",
      "type": "function"
    },
    {
      "constant": true,
      "inputs": [],
      "name": "enrollment_end",
      "outputs": [
        {
          "name": "",
          "type": "uint256"
        }
      ],
      "payable": false,
      "stateMutability": "view",
      "type": "function"
    },
    {
      "constant": true,
      "inputs": [],
      "name": "expiration",
      "outputs": [
        {
          "name": "",
          "type": "uint256"
        }
      ],
      "payable": false,
      "stateMutability": "view",
      "type": "function"
    },
    {
      "constant": true,
      "inputs": [
        {
          "name": "",
          "type": "address"
        }
      ],
      "name": "accounts",
      "outputs": [
        {
          "name": "balance",
          "type": "uint256"
        },
        {
          "name": "shares",
          "type": "uint256"
        }
      ],
      "payable": false,
      "stateMutability": "view",
      "type": "function"
    },
    {
      "constant": true,
      "inputs": [],
      "name": "total_duration",
      "outputs": [
        {
          "name": "",
          "type": "uint256"
        }
      ],
      "payable": false,
      "stateMutability": "view",
      "type": "function"
    },
    {
      "constant": true,
      "inputs": [],
      "name": "enrollment_duration",
      "outputs": [
        {
          "name": "",
          "type": "uint256"
        }
      ],
      "payable": false,
      "stateMutability": "view",
      "type": "function"
    },
    {
      "inputs": [
        {
          "name": "_enrollment_duration",
          "type": "uint256"
        },
        {
          "name": "_total_duration",
          "type": "uint256"
        },
        {
          "name": "_penalty",
          "type": "uint256"
        }
      ],
      "payable": false,
      "stateMutability": "nonpayable",
      "type": "constructor"
    },
    {
      "constant": false,
      "inputs": [],
      "name": "deposit",
      "outputs": [],
      "payable": true,
      "stateMutability": "payable",
      "type": "function"
    },
    {
      "constant": true,
      "inputs": [],
      "name": "check_balance",
      "outputs": [
        {
          "name": "",
          "type": "uint256"
        }
      ],
      "payable": false,
      "stateMutability": "view",
      "type": "function"
    },
    {
      "constant": true,
      "inputs": [],
      "name": "check_shares",
      "outputs": [
        {
          "name": "",
          "type": "uint256"
        }
      ],
      "payable": false,
      "stateMutability": "view",
      "type": "function"
    },
    {
      "constant": true,
      "inputs": [],
      "name": "check_pot",
      "outputs": [
        {
          "name": "",
          "type": "uint256"
        }
      ],
      "payable": false,
      "stateMutability": "view",
      "type": "function"
    },
    {
      "constant": true,
      "inputs": [],
      "name": "check_shares_outstanding",
      "outputs": [
        {
          "name": "",
          "type": "uint256"
        }
      ],
      "payable": false,
      "stateMutability": "view",
      "type": "function"
    },
    {
      "constant": true,
      "inputs": [],
      "name": "check_time_left",
      "outputs": [
        {
          "name": "",
          "type": "uint256"
        }
      ],
      "payable": false,
      "stateMutability": "view",
      "type": "function"
    },
    {
      "constant": false,
      "inputs": [],
      "name": "withdraw",
      "outputs": [
        {
          "name": "",
          "type": "uint256"
        }
      ],
      "payable": false,
      "stateMutability": "nonpayable",
      "type": "function"
    }
  ],
  "bytecode": "0x608060405234801561001057600080fd5b506040516060806107d58339810180604052606081101561003057600080fd5b8101908080519060200190929190805190602001909291908051906020019092919050505082600081905550816001819055508060028190555060005442016003819055506001544201600481905550505050610743806100926000396000f3fe6080604052600436106100c5576000357c0100000000000000000000000000000000000000000000000000000000900463ffffffff1680630edd2ffc146100ca5780632362755f146100f5578063374f1c19146101205780633ccfd60b1461014b57806344f59aa0146101765780634665096d146101a15780635e5c06e2146101cc578063790930931461023857806398ba1d46146102635780639e58ba4f1461028e578063af585426146102b9578063d0e30db0146102e4578063f7e55002146102ee575b600080fd5b3480156100d657600080fd5b506100df610319565b6040518082815260200191505060405180910390f35b34801561010157600080fd5b5061010a61031f565b6040518082815260200191505060405180910390f35b34801561012c57600080fd5b5061013561036e565b6040518082815260200191505060405180910390f35b34801561015757600080fd5b50610160610374565b6040518082815260200191505060405180910390f35b34801561018257600080fd5b5061018b6104cd565b6040518082815260200191505060405180910390f35b3480156101ad57600080fd5b506101b66104d7565b6040518082815260200191505060405180910390f35b3480156101d857600080fd5b5061021b600480360360208110156101ef57600080fd5b81019080803573ffffffffffffffffffffffffffffffffffffffff1690602001909291905050506104dd565b604051808381526020018281526020019250505060405180910390f35b34801561024457600080fd5b5061024d610501565b6040518082815260200191505060405180910390f35b34801561026f57600080fd5b50610278610507565b6040518082815260200191505060405180910390f35b34801561029a57600080fd5b506102a3610556565b6040518082815260200191505060405180910390f35b3480156102c557600080fd5b506102ce61055c565b6040518082815260200191505060405180910390f35b6102ec610566565b005b3480156102fa57600080fd5b50610303610659565b6040518082815260200191505060405180910390f35b60025481565b600080600560003373ffffffffffffffffffffffffffffffffffffffff1673ffffffffffffffffffffffffffffffffffffffff1681526020019081526020016000209050806001015491505090565b60035481565b600080600080600560003373ffffffffffffffffffffffffffffffffffffffff1673ffffffffffffffffffffffffffffffffffffffff168152602001908152602001600020905060003390506103c98161067f565b81600001549350600454421080156103e2575060035442115b1561046957606460025460640385028115156103fa57fe5b0492508073ffffffffffffffffffffffffffffffffffffffff166108fc849081150290604051600060405180830381858888f19350505050158015610443573d6000803e3d6000fd5b506064600254850281151561045457fe5b046006600082825401925050819055506104b4565b8392508073ffffffffffffffffffffffffffffffffffffffff166108fc849081150290604051600060405180830381858888f193505050501580156104b2573d6000803e3d6000fd5b505b8382600001540382600001819055508294505050505090565b6000600654905090565b60045481565b60056020528060005260406000206000915090508060000154908060010154905082565b60015481565b600080600560003373ffffffffffffffffffffffffffffffffffffffff1673ffffffffffffffffffffffffffffffffffffffff1681526020019081526020016000209050806000015491505090565b60005481565b6000600754905090565b600354421015156105df576040517f08c379a00000000000000000000000000000000000000000000000000000000081526004018080602001828103825260118152602001807f456e726f6c6c6d656e7420656e6465642e00000000000000000000000000000081525060200191505060405180910390fd5b6000600560003373ffffffffffffffffffffffffffffffffffffffff1673ffffffffffffffffffffffffffffffffffffffff16815260200190815260200160002090503481600101600082825401925050819055503481600001600082825401925050819055503460076000828254019250508190555050565b60008042600454039050600454421015610676578091505061067c565b60009150505b90565b6000600560008373ffffffffffffffffffffffffffffffffffffffff1673ffffffffffffffffffffffffffffffffffffffff168152602001908152602001600020905060006007546006548360010154028115156106d957fe5b04905080826000016000828254019250508190555080600654036006819055508160010154600754036007819055506000826001018190555050505056fea165627a7a723058201363a978548ec167dd3d50ba5e13d8ccfe28c8c053aec1e73b0e8d7c1e14f2760029",
  "source": "\r\npragma solidity ^0.5.0;\r\n\r\n\r\n\r\ncontract Rocket {\r\n    \r\n    uint public enrollment_duration;\r\n    uint public total_duration;\r\n    uint public penalty;\r\n    uint public enrollment_end;\r\n    uint public expiration;\r\n    \r\n    constructor (uint _enrollment_duration, uint _total_duration, uint _penalty) public {\r\n    \tenrollment_duration = _enrollment_duration;\r\n    \ttotal_duration = _total_duration;\r\n    \tpenalty = _penalty;\r\n    \tenrollment_end = block.timestamp+enrollment_duration;\r\n        expiration = block.timestamp+total_duration;\r\n    \r\n\r\n\r\n   }\r\n\r\n\r\n\r\n\tstruct Account {\r\n\r\n\t\tuint256 balance; //amount of eth deposited and accumulated\r\n\t\tuint256 shares;\r\n\t}\r\n\t\r\n\r\n\r\n\r\n\r\n\tmapping(address => Account) public accounts;\r\n\t\r\n\tuint pot; \r\n\tuint shares_outstanding; \r\n\r\n\r\n\tfunction deposit() payable public {\r\n\t    require(block.timestamp<enrollment_end, \"Enrollment ended.\");\r\n\t\tAccount storage account = accounts[msg.sender];\r\n\t\taccount.shares+=msg.value;\r\n\t\taccount.balance+=msg.value; //credit his account with initial balance and shares equal to the sent sum\r\n\r\n\t\tshares_outstanding+=msg.value; //add these newly created shares to the table\r\n\r\n\r\n\t}\r\n\r\n\tfunction check_balance() public view returns (uint) {\r\n\t\tAccount storage account = accounts[msg.sender];\r\n\t\treturn account.balance;\r\n\r\n\r\n\t}\r\n\t\r\n\tfunction check_shares() public view returns (uint) {\r\n\t\tAccount storage account = accounts[msg.sender];\r\n\t\treturn account.shares;\r\n\r\n\r\n\t}\r\n\t\r\n\tfunction check_pot() public view returns (uint) {\r\n\t    return pot;\r\n\t}\r\n\t\r\n\tfunction check_shares_outstanding() public view returns (uint) {\r\n\t    return shares_outstanding;\r\n\t}\r\n\t\r\n\tfunction check_time_left() public view returns (uint) {\r\n\t    uint time_left = expiration-block.timestamp;\r\n\t    if (block.timestamp<expiration) {\r\n\t        return time_left;\r\n\t    }\r\n\t    else {\r\n\t        return 0;\r\n\t    }\r\n\t}\r\n\t\r\n\tfunction cashout(address _address) private {\r\n\t    Account storage account = accounts[_address];\r\n\t    uint256 pot_share = account.shares*pot/shares_outstanding;  \r\n\t    account.balance+=pot_share; //credit the user with his percentage of the pot\r\n\t    pot=pot-pot_share; //subtract the credited sum from the pot\r\n\t    shares_outstanding=shares_outstanding-account.shares; //remove his used up shares from the table\r\n\t    account.shares=0; //remove his used up shares from his account\r\n\t   \r\n\t}\r\n\r\n\tfunction withdraw() public returns(uint256) {\r\n\t    \r\n\t    \r\n\t    uint256 amount;\r\n\t    uint256 payout;\r\n\t\tAccount storage account = accounts[msg.sender];\r\n\t\taddress payable User = msg.sender;\r\n\t\t\r\n\t\tcashout(User); //user cashes out his share of the pot\r\n\t\t\r\n\t\t\r\n\r\n\t\tamount = account.balance;\r\n\t\tif (block.timestamp<expiration && block.timestamp>enrollment_end) {\r\n\t\t    payout = amount*(100-penalty)/100;\r\n\t\t\r\n    \t\tUser.transfer((payout)); //contract transfers 80% of the user's balance to user\r\n    \t\tpot+=amount*penalty/100;            //remaining 20% is added to the pot\r\n\t\t}\r\n\t\telse {\r\n\t\t    payout=amount;\r\n\t\t    User.transfer((payout));    \r\n\t\t}\r\n\t\t\r\n\t\taccount.balance=account.balance-amount; //zero the user's balance\r\n\t\treturn payout;\r\n\t}\r\n}\r\n",
  "sourcePath": "C:\\Users\\idkva\\Code\\RocketCD\\contracts\\Rocket.sol",
  "compiler": {
    "name": "solc",
    "version": "0.5.0+commit.1d4f565a.Emscripten.clang"
  },
  "schemaVersion": "3.0.1",
  "updatedAt": "2019-07-20T19:36:58.002Z",
  "devdoc": {
    "methods": {}
  },
  "userdoc": {
    "methods": {}
  }
}