{
  "contractName": "Rockets",
  "abi": [
    {
      "constant": false,
      "inputs": [
        {
          "name": "_enrollment_duration",
          "type": "uint256"
        },
        {
          "name": "_total_duration",
          "type": "uint256"
        },
        {
          "name": "_penalty",
          "type": "uint256"
        }
      ],
      "name": "createRocket",
      "outputs": [],
      "payable": false,
      "stateMutability": "nonpayable",
      "type": "function",
      "signature": "0xd1be5ec0"
    },
    {
      "constant": true,
      "inputs": [],
      "name": "getDeployedRockets",
      "outputs": [
        {
          "name": "",
          "type": "address[]"
        }
      ],
      "payable": false,
      "stateMutability": "view",
      "type": "function",
      "signature": "0xf2164bec"
    }
  ],
  "bytecode": "0x608060405234801561001057600080fd5b50610a5b806100206000396000f3fe60806040526004361061004c576000357c0100000000000000000000000000000000000000000000000000000000900463ffffffff168063d1be5ec014610051578063f2164bec146100a0575b600080fd5b34801561005d57600080fd5b5061009e6004803603606081101561007457600080fd5b8101908080359060200190929190803590602001909291908035906020019092919050505061010c565b005b3480156100ac57600080fd5b506100b56101bc565b6040518080602001828103825283818151815260200191508051906020019060200280838360005b838110156100f85780820151818401526020810190506100dd565b505050509050019250505060405180910390f35b600083838361011961024a565b808481526020018381526020018281526020019350505050604051809103906000f08015801561014d573d6000803e3d6000fd5b50905060008190806001815401808255809150509060018203906000526020600020016000909192909190916101000a81548173ffffffffffffffffffffffffffffffffffffffff021916908373ffffffffffffffffffffffffffffffffffffffff1602179055505050505050565b6060600080548060200260200160405190810160405280929190818152602001828054801561024057602002820191906000526020600020905b8160009054906101000a900473ffffffffffffffffffffffffffffffffffffffff1673ffffffffffffffffffffffffffffffffffffffff16815260200190600101908083116101f6575b5050505050905090565b6040516107d58061025b8339019056fe608060405234801561001057600080fd5b506040516060806107d58339810180604052606081101561003057600080fd5b8101908080519060200190929190805190602001909291908051906020019092919050505082600081905550816001819055508060028190555060005442016003819055506001544201600481905550505050610743806100926000396000f3fe6080604052600436106100c5576000357c0100000000000000000000000000000000000000000000000000000000900463ffffffff1680630edd2ffc146100ca5780632362755f146100f5578063374f1c19146101205780633ccfd60b1461014b57806344f59aa0146101765780634665096d146101a15780635e5c06e2146101cc578063790930931461023857806398ba1d46146102635780639e58ba4f1461028e578063af585426146102b9578063d0e30db0146102e4578063f7e55002146102ee575b600080fd5b3480156100d657600080fd5b506100df610319565b6040518082815260200191505060405180910390f35b34801561010157600080fd5b5061010a61031f565b6040518082815260200191505060405180910390f35b34801561012c57600080fd5b5061013561036e565b6040518082815260200191505060405180910390f35b34801561015757600080fd5b50610160610374565b6040518082815260200191505060405180910390f35b34801561018257600080fd5b5061018b6104cd565b6040518082815260200191505060405180910390f35b3480156101ad57600080fd5b506101b66104d7565b6040518082815260200191505060405180910390f35b3480156101d857600080fd5b5061021b600480360360208110156101ef57600080fd5b81019080803573ffffffffffffffffffffffffffffffffffffffff1690602001909291905050506104dd565b604051808381526020018281526020019250505060405180910390f35b34801561024457600080fd5b5061024d610501565b6040518082815260200191505060405180910390f35b34801561026f57600080fd5b50610278610507565b6040518082815260200191505060405180910390f35b34801561029a57600080fd5b506102a3610556565b6040518082815260200191505060405180910390f35b3480156102c557600080fd5b506102ce61055c565b6040518082815260200191505060405180910390f35b6102ec610566565b005b3480156102fa57600080fd5b50610303610659565b6040518082815260200191505060405180910390f35b60025481565b600080600560003373ffffffffffffffffffffffffffffffffffffffff1673ffffffffffffffffffffffffffffffffffffffff1681526020019081526020016000209050806001015491505090565b60035481565b600080600080600560003373ffffffffffffffffffffffffffffffffffffffff1673ffffffffffffffffffffffffffffffffffffffff168152602001908152602001600020905060003390506103c98161067f565b81600001549350600454421080156103e2575060035442115b1561046957606460025460640385028115156103fa57fe5b0492508073ffffffffffffffffffffffffffffffffffffffff166108fc849081150290604051600060405180830381858888f19350505050158015610443573d6000803e3d6000fd5b506064600254850281151561045457fe5b046006600082825401925050819055506104b4565b8392508073ffffffffffffffffffffffffffffffffffffffff166108fc849081150290604051600060405180830381858888f193505050501580156104b2573d6000803e3d6000fd5b505b8382600001540382600001819055508294505050505090565b6000600654905090565b60045481565b60056020528060005260406000206000915090508060000154908060010154905082565b60015481565b600080600560003373ffffffffffffffffffffffffffffffffffffffff1673ffffffffffffffffffffffffffffffffffffffff1681526020019081526020016000209050806000015491505090565b60005481565b6000600754905090565b600354421015156105df576040517f08c379a00000000000000000000000000000000000000000000000000000000081526004018080602001828103825260118152602001807f456e726f6c6c6d656e7420656e6465642e00000000000000000000000000000081525060200191505060405180910390fd5b6000600560003373ffffffffffffffffffffffffffffffffffffffff1673ffffffffffffffffffffffffffffffffffffffff16815260200190815260200160002090503481600101600082825401925050819055503481600001600082825401925050819055503460076000828254019250508190555050565b60008042600454039050600454421015610676578091505061067c565b60009150505b90565b6000600560008373ffffffffffffffffffffffffffffffffffffffff1673ffffffffffffffffffffffffffffffffffffffff168152602001908152602001600020905060006007546006548360010154028115156106d957fe5b04905080826000016000828254019250508190555080600654036006819055508160010154600754036007819055506000826001018190555050505056fea165627a7a723058201363a978548ec167dd3d50ba5e13d8ccfe28c8c053aec1e73b0e8d7c1e14f2760029a165627a7a7230582022ab6d9500938ac33098a2feca8f0e3e181173404c183ac7f68d79578d08b60d0029",
  "source": "pragma solidity ^0.5.0;\r\n\r\nimport './Rocket.sol';\r\n\r\ncontract Rockets {\r\n   address[] rockets;\r\n   function createRocket(uint _enrollment_duration, uint _total_duration, uint _penalty) public {\r\n       \r\n      Rocket newRocket = new Rocket(_enrollment_duration, _total_duration, _penalty);            \r\n      rockets.push(address(newRocket));   \r\n   }\r\n   function getDeployedRockets() public view returns (address[] memory) {\r\n      return rockets;\r\n   }\r\n}\r\n\r\n\r\n",
  "sourcePath": "C:/Users/idkva/Code/RocketCD/contracts/Rockets.sol",
  "compiler": {
    "name": "solc",
    "version": "0.5.0+commit.1d4f565a.Emscripten.clang"
  },
  "schemaVersion": "3.0.1",
  "updatedAt": "2019-07-20T19:36:59.251Z",
  "devdoc": {
    "methods": {}
  },
  "userdoc": {
    "methods": {}
  }
}